:020000040800F2
:1000000000000320D909000841090008430900083D
:1000100045090008470900084909000800000000D8
:10002000000000000000000000000000A122000805
:100030004B0900080000000041230008F51F0008DC
:10004000290A0008290A0008290A0008290A0008C4
:10005000290A0008290A0008290A0008290A0008B4
:10006000290A0008290A0008290A0008290A0008A4
:10007000290A0008290A00084D090008290A000871
:10008000290A0008290A0008290A0008290A000884
:10009000290A0008290A0008290A0008290A000874
:1000A000290A0008290A0008290A0008290A000864
:1000B000290A0008290A0008290A0008290A000854
:1000C000290A0008290A0008290A0008290A000844
:1000D0005D090008290A0008290A0008290A000801
:1000E000290A0008290A0008290A0008290A000824
:1000F000290A00086D090008290A0008290A0008D1
:10010000290A0008290A0008290A0008290A000803
:10011000290A0008290A0008290A0008290A0008F3
:10012000290A0008290A0008290A0008290A0008E3
:10013000290A0008290A0008290A0008290A0008D3
:10014000290A0008290A0008290A0008290A0008C3
:10015000290A0008290A0008290A0008290A0008B3
:10016000290A0008290A0008290A0008290A0008A3
:10017000290A0008290A0008290A000800000000CE
:10018000290A0008290A0008290A0008290A000883
:10019000290A0008290A0008290A0008290A000873
:0C01A0000000000000000000290A000818
:1001B00053B94AB9002908BF00281CBF4FF0FF31CE
:1001C0004FF0FF3000F00CB8ADF1080C6DE904CE33
:1001D00003F0A6FDDDF804E0DDE9022304B070477A
:1001E000704700BF844641EA000313F003036DD15A
:1001F000403A41D351F8043B40F8043B51F8043BEA
:1002000040F8043B51F8043B40F8043B51F8043BF0
:1002100040F8043B51F8043B40F8043B51F8043BE0
:1002200040F8043B51F8043B40F8043B51F8043BD0
:1002300040F8043B51F8043B40F8043B51F8043BC0
:1002400040F8043B51F8043B40F8043B51F8043BB0
:1002500040F8043B51F8043B40F8043B51F8043BA0
:1002600040F8043B51F8043B40F8043B51F8043B90
:1002700040F8043B403ABDD2303211D351F8043B30
:1002800040F8043B51F8043B40F8043B51F8043B70
:1002900040F8043B51F8043B40F8043B103AEDD2DF
:1002A0000C3205D351F8043B40F8043B043AF9D230
:1002B000043208D0D2071CBF11F8013B00F8013B03
:1002C00001D30B8803806046704700BF082A13D310
:1002D0008B078DD010F003038AD0C3F10403D21A28
:1002E000DB071CBF11F8013B00F8013B80D331F85C
:1002F000023B20F8023B7BE7043AD9D3013A11F8DC
:10030000013B00F8013BF9D20B7803704B78437046
:100310008B788370604670470348044B834202D059
:10032000034B03B11847704770050020700500208B
:10033000000000000548064B1B1AD90F01EBA30172
:10034000491002D0034B03B11847704770050020D5
:10035000700500200000000010B5064C237843B95A
:10036000FFF7DAFF044B13B10448AFF30080012319
:10037000237010BD70050020000000004C450008EF
:1003800008B5054B1BB105490548AFF30080BDE832
:100390000840FFF7CFBF00BF000000007405002039
:1003A0004C45000808B50D480D4B0360062343601B
:1003B00000238360C3604FF4202202614FF4801257
:1003C0004261037643768376C3760377437700F002
:1003D00059FB00B908BD00F037F9FBE7B80500206C
:1003E0000064004008B50D480D4B036006234360D0
:1003F00000238360C3604FF4202202614FF4801217
:100400004261037643768376C3760377437700F0C1
:1004100039FB00B908BD00F017F9FBE79005002093
:100420000068004000B58BB0002305930693079346
:10043000089309930368374A934205D0364A93429A
:100440002FD00BB05DF804FB344A136801331360FE
:10045000012B19D000230193314B1A6B42F0020299
:100460001A631B6B03F002030193019B4FF440736B
:10047000059302230693032308930923099305A9EF
:10048000284800F0D9FDDCE700230093244B1A6CC8
:1004900042F000721A641B6C03F000730093009B1F
:1004A000D8E7002302931E4B1A6C42F080621A6454
:1004B0001B6C03F080630293029B184A136801339C
:1004C0001360012B18D000230493154B1A6B42F0D4
:1004D00002021A631B6B03F002030493049B602364
:1004E000059302230693032308930923099305A97F
:1004F0000C4800F0A1FDA4E700230393084B1A6CFD
:1005000042F000721A641B6C03F000730393039BA8
:10051000D9E700BF00640040006800408C0500205F
:10052000003802400004024000B583B0002201926E
:10053000094B196B41F4001119631B6B03F4001391
:100540000193019B05210E2000F096FB0E2000F088
:10055000A3FB03B05DF804FB0038024008B501209E
:1005600001F0DDFDFBE7000008B5044A0021044866
:1005700001F07AFD034B186008BD00BF90450008EC
:100580005D050008E005002070B58AB005AD0024C7
:10059000059406940794089409940094224B1A6BCE
:1005A00042F002021A631A6B02F002020092009AF1
:1005B00001941A6B42F001021A631A6B02F00102F5
:1005C0000192019A02941A6B42F480721A631A6BB8
:1005D00002F480720292029A03941A6B42F00802AB
:1005E0001A631A6B02F008020392039A04941A6BBE
:1005F00042F004021A631B6B03F004030493049B90
:100600000A4E01220921304600F01AFE0923059303
:10061000012306930794032308932946304600F0EC
:100620000BFD0AB070BD00BF003802400008024058
:1006300008B50268034B9A4200D008BD00F010FADA
:10064000FBE700BF0020004072B6FEE710B594B093
:1006500008AC30220021204603F0DEFC0023039387
:10066000049305930693079301931F4A116C41F07D
:1006700080511164126C02F080520192019A02932F
:100680001A4A116841F440411160126802F4404274
:100690000292029A0222089201210B9110210C91E0
:1006A0000E920F9308231093A82311931292042300
:1006B0001393204600F0CAFD90B90F230393022341
:1006C0000493002305934FF4A05306934FF48053F3
:1006D0000793052103A801F009F818B914B010BD5B
:1006E000FFF7B2FFFFF7B0FF003802400070004094
:1006F00008B500F09BF9FFF7A9FFFFF745FFFFF7EB
:1007000013FFFFF74FFEFFF76DFE00F007F801F053
:100710007DFCFFF729FF01F08BFCFEE708B50F48D1
:100720000F4B03604FF48273436000238360C36008
:1007300002220261012242614FF4007282611022A2
:10074000C2610362436283620A23C36201F0B2F8AA
:1007500000B908BDFFF778FFFBE700BF44060020A3
:10076000003800402DE9F04389B00023039304933F
:100770000593069307930268324B9A4202D009B060
:10078000BDE8F08304460025009503F500331A6C9C
:1007900042F480421A641A6C02F480420092009A79
:1007A00001951A6B42F480721A631A6B02F480721C
:1007B0000192019A02951A6B42F008021A631B6BB0
:1007C00003F008030293029B0C2303934FF00209EA
:1007D000CDF810904FF00308CDF818800527079743
:1007E0000DEB03063146184800F026FC082303935E
:1007F000CDF810900595CDF818800797314613482D
:1008000000F01AFC1248134B036045608560C56018
:100810004FF48063036145618561C561056245628E
:1008200000F0A4FA58B90A4BE3649C630022052146
:10083000242000F021FA242000F02EFA9FE7FFF791
:1008400003FFF0E70038004000200240000C0240A7
:10085000E40500205860024000B583B000220092F9
:100860000D4B596C41F480415964596C01F480413D
:10087000009100990192196C41F0805119641B6C30
:1008800003F080530193019B0F216FF0010000F0F2
:10089000F3F903B05DF804FB0038024030B589B0CD
:1008A000044600230193214B1A6C42F480721A64AF
:1008B0001B6C03F480730193019B02A903A800F051
:1008C000DBFF069BCBB900F0C7FF0346184AA2FB2B
:1008D00003239B0C013B1748174A026040F2E732A2
:1008E000C2604360002303618360836101F03CFACE
:1008F000054630B1284609B030BD00F0ADFF4300D9
:10090000E4E70C4801F0D2F805460028F2D12D208A
:1009100000F0C2F90F2C01D90125EBE70022214696
:100920002D2000F0A9F9054B1C60E3E700380240D8
:1009300083DE1B439C0600200020004008000020AE
:10094000FEE7FEE7FEE7FEE7FEE7704708B5024870
:1009500000F084FA08BD00BFE405002008B5024895
:1009600001F008F808BD00BF4406002008B50248A1
:1009700001F0E2F808BD00BF9C06002010B5034658
:100980000C4A0D490D48006840B10C48006803440A
:10099000521A934206D8094A136010BD0748084C02
:1009A0000460F2E703F0BCFB0C2303604FF0FF3060
:1009B000F3E700BF0000032000040000E40600206D
:1009C000705C0020034AD2F8883043F47003C2F808
:1009D0008830704700ED00E0DFF834D0FFF7F2FF19
:1009E0000C480D490D4A002302E0D458C45004338A
:1009F000C4188C42F9D30A4A0A4C002301E0136060
:100A00000432A242FBD303F091FBFFF771FE704763
:100A1000000003200000002070050020EC450008C5
:100A2000700500206C5C0020FEE7000008B50B4B51
:100A30001A6842F400721A601A6842F480621A60FE
:100A40001A6842F480721A60032000F003F90F2044
:100A5000FFF724FFFFF700FF002008BD003C024025
:100A6000034A1168034B1B780B441360704700BFA7
:100A7000E806002004000020014B1868704700BF02
:100A8000E8060020002800F0A18038B5044690F860
:100A90002030D3B12268136843F001031360FFF7DD
:100AA000EBFF054623685A6812F0010F10D1FFF7DB
:100AB000E3FF401B0A28F5D9636A43F400336362FD
:100AC000052384F82030012038BDFFF7ABFCE1E7B7
:100AD0001A6822F002021A60FFF7CEFF054623686B
:100AE0005A6812F0020F0DD0FFF7C6FF401B0A280C
:100AF000F5D9636A43F400336362052384F8203038
:100B00000120E1E7227E012A3DD01A6822F080020E
:100B10001A60637E012B3BD02268136823F04003E8
:100B20001360A37E012B39D02268136823F02003C1
:100B30001360E37E012B37D02268136843F0100363
:100B40001360237F012B35D02268136823F008033C
:100B50001360637F012B33D02268136823F00403F2
:100B60001360A368E2681343226913436269134365
:100B70006268013A21681343CB610020606201235F
:100B800084F82030A0E71A6842F080021A60C0E7BB
:100B90002268136843F040031360C2E722681368B9
:100BA00043F020031360C4E72268136823F01003A6
:100BB0001360C6E72268136843F008031360C8E7B0
:100BC0002268136843F004031360CAE701207047EA
:100BD000002807DB00F01F02400901239340024A6E
:100BE00042F82030704700BF00E100E0002808DB39
:100BF0000901C9B200F1604000F5614080F80013BE
:100C0000704700F00F000901C9B2014B1954704739
:100C100014ED00E000B500F00700C0F1070CBCF1D6
:100C2000040F28BF4FF0040C031D062B0FD9C31E61
:100C30004FF0FF3E0EFA0CF021EA000199400EFA47
:100C400003FE22EA0E0241EA02005DF804FB0023E3
:100C5000EEE70000074AD36823F4E0631B041B0C93
:100C6000000200F4E060034343F0BF6343F4003349
:100C7000D360704700ED00E010B50446054BD8681E
:100C8000C0F30220FFF7C6FF01462046FFF7AEFF84
:100C900010BD00BF00ED00E008B5FFF799FF08BDEB
:100CA00010B40368D9B210390A4AA2FB01421209F2
:100CB000094CA25CC2655F2907D96FF309030433AD
:100CC0008365806D5DF8044B70476FF3090383659E
:100CD000F7E700BFABAAAAAACC450008836A8269DD
:100CE00092B9012B0AD0022B02D00BB10020704721
:100CF000C36A13F0807F28D100207047C36AB3F124
:100D0000C07F24D000207047B2F5005F09D0022BCD
:100D100025D9032B25D1C36A13F0807F23D100206E
:100D20007047032B03D8DFE803F01404140A0020F3
:100D30007047C36A13F0807F0DD100207047C36AEB
:100D4000B3F1C07F09D00020704701207047012017
:100D50007047012070470120704701207047012033
:100D600070470020704701207047000070B50446AE
:100D7000FFF782FE002C5BD00546022384F8353055
:100D8000002384F834302268136823F001031360D1
:100D900023681A6812F0010F0AD0FFF76DFE431B9B
:100DA000052BF5D920236365032084F8350070BD39
:100DB0001A68204911406268A0680243E068024353
:100DC0002069024360690243A0690243E06902436B
:100DD000206A02430A43616A04291ED01A60266809
:100DE000756925F00705636A1D43042B07D1A36AC3
:100DF0001D43E36A1BB12046FFF770FF90B9756190
:100E00002046FFF74DFFE26D3F23934083600020B3
:100E10006065012384F83530C9E7E16A206B01433E
:100E20000A43DBE740236365012084F83500BEE711
:100E30000120BCE73F8010F090F83530022B03D042
:100E40008023436501207047052380F83530026810
:100E5000136823F00103136000207047F0B583B0DE
:100E6000044600230193724B1D68724BA3FB0535AA
:100E7000AD0A876D3E68C26D08239340334210D09F
:100E800003681A6812F0040F0BD01A6822F00402EB
:100E90001A60C26D08239340BB60436D43F00103A9
:100EA0004365E26D01239340334209D022685269C1
:100EB00012F0800F04D0BB60636D43F002036365E2
:100EC000E26D04239340334209D02268126812F085
:100ED000020F04D0BB60636D43F004036365E26DF1
:100EE00010239340334224D02268126812F0080F76
:100EF0001FD0BB6023681A6812F4802F0DD01B68C6
:100F000013F4002F04D1236C9BB12046984710E0C6
:100F1000A36C73B1204698470BE01A6812F4807FE7
:100F200003D11A6822F008021A60236C0BB1204624
:100F30009847E26D20239340334254D022681268D0
:100F400012F0100F4FD0BB6094F83530052B0ED047
:100F500023681A6812F4802F33D01B6813F4002F13
:100F60002AD1636C002B3ED0204698473BE0226894
:100F7000136823F0160313602268536923F080037B
:100F80005361236CA3B12268136823F00803136034
:100F9000E26D3F239340BB60012384F8353000238A
:100FA00084F83430236D002B3FD0204698473CE036
:100FB000A36C002BE7D1EBE7E36BA3B12046984786
:100FC00011E01A6812F4807F09D11A6822F0100229
:100FD0001A60012384F83530002384F83430E36B41
:100FE0000BB120469847636DFBB1636D13F0010FA1
:100FF00017D0052384F835302268136823F00103E5
:101000001360019B01330193AB4204D823681B6832
:1010100013F0010FF5D1012384F83530002384F853
:101020003430E36C0BB12046984703B0F0BD00BFED
:1010300000000020B5814E1B00230F2B00F2F6802C
:1010400070B582B066E085684FEA430E032404FA67
:101050000EF425EA0405CC6804FA0EF42C438460EF
:10106000446824EA02044A68C2F300129A40224308
:1010700042605DE0DC08083450F8242003F00705E6
:10108000AD004FF00F0E0EFA05FE22EA0E0E0A69B1
:10109000AA4042EA0E0240F824205DE0092200E066
:1010A000002202FA0EF22A430234614D45F8242050
:1010B000604A94686FEA0C0224EA0C054E6816F444
:1010C000801F01D04CEA04055A4CA560E46802EA8E
:1010D00004054E6816F4001F01D04CEA0405554C77
:1010E000E560646802EA04054E6816F4003F01D02A
:1010F0004CEA04054F4C6560246822404D6815F4A5
:10110000803F01D04CEA04024A4C226001330F2B8D
:1011100000F28A8001229A400C6804EA020C32EA4A
:101120000404F3D14C6804F00304013C012C8AD977
:101130004A6802F00302032A09D0C4685D00032252
:10114000AA4024EA02048A68AA402243C2604A688C
:1011500002F00302022A8DD004684FEA430E0322F4
:1011600002FA0EF224EA02044A6802F0030202FACA
:101170000EF2224302604A6812F4403FC6D00022B9
:1011800001922D4A546C44F480445464526C02F42D
:1011900080420192019A9C08A51C254A52F82550CC
:1011A00003F0030E4FEA8E0E0F2202FA0EF225EA2A
:1011B0000205224A90423FF473AF02F580629042EA
:1011C00022D002F58062904220D002F580629042E7
:1011D0001ED002F5806290421CD002F580629042DF
:1011E0001AD002F58062904218D002F580629042D7
:1011F00016D002F58062904214D002F580629042CF
:101200003FF44CAF0A224CE701224AE7022248E7AA
:10121000032246E7042244E7052242E7062240E78C
:1012200007223EE708223CE702B070BD704700BFCE
:1012300000380140003C01400038024000000240FC
:101240000AB181617047090481617047002800F08C
:10125000E08170B582B00446036813F0010F3BD003
:101260009F4B9B6803F00C03042B2CD09C4B9B687A
:1012700003F00C03082B21D06368B3F5803F4FD0F7
:10128000B3F5A02F52D0964B1A6822F480321A6020
:101290001A6822F480221A606368002B50D0FFF78E
:1012A000EBFB05468E4B1B6813F4003F14D1FFF790
:1012B000E3FB401B6428F5D90320B1E1884B5B6850
:1012C00013F4800FD8D0864B1B6813F4003F03D073
:1012D0006368002B00F09F81236813F0020F54D045
:1012E0007F4B9B6813F00C0F3ED07D4B9B6803F047
:1012F0000C03082B33D0E368002B68D0794B012214
:101300001A60FFF7B9FB0546754B1B6813F0020F17
:1013100054D1FFF7B1FB401B0228F5D903207FE130
:101320006F4A136843F480331360B5E76C4B1A6857
:1013300042F480221A601A6842F480321A60ABE7E5
:10134000FFF79AFB0546664B1B6813F4003FC3D0BA
:10135000FFF792FB401B6428F5D9032060E1604B46
:101360005B6813F4800FC6D15D4B1B6813F0020F4E
:1013700003D0E368012B40F05081594A136823F0F1
:10138000F803216943EAC1031360236813F0080FCF
:1013900042D063696BB3534B0122C3F8802EFFF731
:1013A0006BFB05464E4B5B6F13F0020F34D1FFF71A
:1013B00063FB401B0228F5D9032031E1484A13683A
:1013C00023F0F803216943EAC1031360DDE7454BCD
:1013D00000221A60FFF750FB0546414B1B6813F0D3
:1013E000020FD2D0FFF748FB401B0228F5D903209B
:1013F00016E13C4B0022C3F8802EFFF73DFB05466B
:10140000374B5B6F13F0020F06D0FFF735FB401B25
:101410000228F5D9032003E1236813F0040F77D0E5
:101420002F4B1B6C13F0805F33D1002301932C4BA7
:101430001A6C42F080521A641B6C03F080530193C3
:10144000019B0125284B1B6813F4807F23D0A368E0
:10145000012B34D0052B38D0214B1A6F22F001021A
:101460001A671A6F22F004021A67A368002B3DD096
:10147000FFF702FB06461A4B1B6F13F0020F46D113
:10148000FFF7FAFA801B41F288339842F3D9032020
:10149000C6E00025D6E7144A136843F4807313604E
:1014A000FFF7EAFA0646104B1B6813F4807FCED193
:1014B000FFF7E2FA801B0228F5D90320B0E0084AC2
:1014C000136F43F001031367CFE7054B1A6F42F028
:1014D00004021A671A6F42F001021A67C5E700BFDB
:1014E000003802400000474200700040FFF7C4FA95
:1014F0000646524B1B6F13F0020F08D0FFF7BCFAE1
:10150000801B41F288339842F3D9032088E0EDB97B
:10151000A369002B00F08380484A926802F00C0215
:10152000082A51D0022B17D0454B00221A66FFF72C
:10153000A3FA0446414B1B6813F0007F42D0FFF72B
:101540009BFA001B0228F5D9032069E03B4A136C83
:1015500023F080531364DBE7394B00221A66FFF750
:101560008BFA0546354B1B6813F0007F06D0FFF75A
:1015700083FA401B0228F5D9032051E0E369226A6F
:101580001343626A43EA8213A26A5208013A43EAA9
:101590000243E26A43EA0263284A5360284B01226D
:1015A0001A66FFF769FA0446244B1B6813F0007FA4
:1015B00006D1FFF761FA001B0228F5D903202FE0BE
:1015C00000202DE000202BE0012B2BD01B4B5B6873
:1015D00003F48001E269914226D103F03F02216ABF
:1015E0008A4223D1616A47F6C0721A40B2EB811F6A
:1015F0001ED103F44031A26A5208013AB1EB024F06
:1016000018D103F07063E26AB3EB026F14D10020CB
:1016100006E001207047012002E0012000E00020E8
:1016200002B070BD0120FBE70120F9E70120F7E7D8
:101630000120F5E70120F3E70120F1E7003802403F
:101640000000474208B5264B9B6803F00C03042BAF
:1016500041D0082B41D1224B5A6802F03F025B680F
:1016600013F4800F12D01E4B5968C1F388111D4826
:101670000023A1FB0001FEF79BFD194B5B68C3F340
:10168000014301335B00B0FBF3F008BD144B586815
:10169000C0F388104FEA401CBCEB000C6EEB0E0E42
:1016A0004FEA8E1343EA9C634FEA8C11B1EB0C01B5
:1016B00063EB0E03DB0043EA5173C90011EB000C2E
:1016C00043F10003990200234FEA8C2041EA9C5128
:1016D000FEF76EFDD1E70348D7E70348D5E700BF23
:1016E0000038024040787D010024F400002800F01A
:1016F0009B8070B50D4604464F4B1B6803F00F03EB
:101700008B4208D2CBB24C4A1370136803F00F031C
:101710008B4240F08B80236813F0020F17D013F038
:10172000040F04D0454A936843F4E0539360236860
:1017300013F0080F04D0414A936843F46043936068
:101740003E4A936823F0F003A1680B43936023683B
:1017500013F0010F32D06368012B21D09A1E012AA9
:1017600025D9364A126812F0020F61D033498A68CF
:1017700022F0030213438B60FFF77EF906462F4BDE
:101780009B6803F00C036268B3EB820F16D0FFF77F
:1017900073F9801B41F288339842F0D9032042E06C
:1017A000264A126812F4003FE0D101203BE0234AB0
:1017B000126812F0007FD9D1012034E01E4B1B6863
:1017C00003F00F03AB4207D9EAB21B4B1A701B6838
:1017D00003F00F03AB422DD1236813F0040F06D0A2
:1017E000164A936823F4E053E1680B43936023683F
:1017F00013F0080F07D0114A936823F4604321695E
:1018000043EAC1039360FFF71DFF0C4B9B68C3F3D2
:1018100003130B4AD35CD8400A4B18600A4B186874
:10182000FFF73CF8002070BD012070470120FAE767
:101830000120F8E70120F6E7003C024000380240B2
:10184000BC4500080000002008000020014B18687B
:10185000704700BF0000002008B5FFF7F7FF044BFA
:101860009B68C3F38223034AD35CD84008BD00BF02
:1018700000380240B44500080F2303600B4B9A6800
:1018800002F0030242609A6802F0F00282609A68F5
:1018900002F4E052C2609B68DB0803F4E05303618A
:1018A000034B1B6803F00F030B60704700380240C6
:1018B000003C024000285AD010B50446436A33B9B0
:1018C0004368B3F5827F05D00023C36102E00023A3
:1018D000036143610023A36294F85130002B40D090
:1018E000022384F851302268136823F04003136008
:1018F000636803F48273A26802F404421343E2684B
:1019000002F400621343226902F002021343626987
:1019100002F001021343A26902F400721343E26968
:1019200002F038021343226A02F080021343A26AD3
:1019300002F40052216813430B60638B03F004032D
:10194000626A02F01002216813434B602268D36977
:1019500023F40063D36100206065012384F85130D3
:1019600010BD84F850302046FEF7FCFEB8E7012099
:101970007047704730B585B0044602685168936877
:10198000C3F3801013F0400F05D113F0010F02D004
:1019900011F0400F68D113F0020F02D011F0800F48
:1019A00066D1C3F3401513F0200F03D110B913F41F
:1019B000807F60D011F0200F5DD070B194F851009D
:1019C00003285AD0606D40F004006065002000904C
:1019D000D068009090680090009865B1606D40F00C
:1019E000010060650020029090680290106820F06D
:1019F00040001060029A13F4807F09D0636D43F0B9
:101A0000080363650023039323689B680393039B88
:101A1000636D002B2FD02268536823F0E0035360DE
:101A2000012384F8513011F0030F2ED0226853683F
:101A300023F003035360E36C4BB1164A1A65E06C64
:101A4000FFF7FAF918B1636D43F040036365A36CC7
:101A50008BB1104A1A65A06CFFF7EEF958B1636DAF
:101A600043F04003636506E0236C2046984702E09C
:101A7000636C2046984705B030BD00230193D368BE
:101A8000019393680193019BF5E72046FFF771FFEF
:101A9000F1E700BF991A000808B5806B0023C387DF
:101AA000C386FFF766FF08BD7047000090F83D3021
:101AB000012B37D1022380F83D300268D36843F010
:101AC0000103D3600368194A934220D0B3F1804FD9
:101AD0001DD0A2F57C42934219D002F58062934258
:101AE00015D002F58062934211D002F578429342FC
:101AF0000DD002F57052934209D0A2F59432934270
:101B000005D01A6842F001021A60002070479A68F6
:101B100002F00702062A07D01A6842F001021A6092
:101B200000207047012070470020704700000140EE
:101B3000704770477047704770B504460368DE68A9
:101B40001D6915F0020F10D016F0020F0DD06FF0C6
:101B500002021A610123037703689B6913F0030FE4
:101B60005ED0FFF7E6FF0023237715F0040F12D0B5
:101B700016F0040F0FD023686FF004021A610223DD
:101B8000237723689B6913F4407F4FD02046FFF7EB
:101B9000D0FF0023237715F0080F12D016F0080F9E
:101BA0000FD023686FF008021A610423237723689B
:101BB000DB6913F0030F40D02046FFF7BAFF002384
:101BC000237715F0100F12D016F0100F0FD02368E6
:101BD0006FF010021A61082323772368DB6913F47E
:101BE000407F31D02046FFF7A4FF0023237715F074
:101BF000010F02D016F0010F2DD115F0800F02D089
:101C000016F0800F2FD115F0400F02D016F0400FC4
:101C100031D115F0200F02D016F0200F33D170BD56
:101C2000FFF786FF2046FFF785FF9CE72046FFF77A
:101C30007FFF2046FFF77EFFABE72046FFF778FFE8
:101C40002046FFF777FFBAE72046FFF771FF2046EF
:101C5000FFF770FFC9E723686FF001021A612046A1
:101C6000FEF7E6FCC9E723686FF080021A612046A0
:101C700000F0A7F8C7E723686FF040021A6120461A
:101C8000FFF759FFC5E723686FF020021A6120466D
:101C900000F096F8C3E700000368324A904212D081
:101CA000B0F1804F0FD0A2F57C4290420BD002F5EC
:101CB0008062904207D002F58062904203D002F524
:101CC0007842904203D123F070034A681343254AB7
:101CD00090422AD0B0F1804F27D0A2F57C429042AA
:101CE00023D002F5806290421FD002F580629042BC
:101CF0001BD002F57842904217D002F57052904204
:101D000013D002F5806290420FD002F580629042BB
:101D10000BD0A2F59832904207D002F58062904233
:101D200003D002F58062904203D123F44073CA6865
:101D3000134323F080034A6913438A68C2620A6826
:101D40008262084A904203D002F58062904201D13B
:101D50000A690263026842F00402026001224261E1
:101D6000036070470000014040B310B5044690F88E
:101D70003D30F3B1022384F83D30214651F8040B85
:101D8000FFF78AFF012384F8463084F83E3084F858
:101D90003F3084F8403084F8413084F8423084F891
:101DA000433084F8443084F8453084F83D300020D6
:101DB00010BD80F83C30FFF777FEDBE7012070476D
:101DC000704770470346094A92E8030083E803001E
:101DD000AB221A7200225A619A61DA611A625A625F
:101DE000AC221A75AD225A75184670476445000832
:101DF0000022C260026142618261C261026242628B
:101E00008262C262026342638263C26302644264AA
:101E10008264C2647047000010B50446FFF7E8FF13
:101E200004F15000FFF7E4FF194BC4F8B830194B28
:101E3000C4F8BC30184BC4F8C030184BC4F8C430D8
:101E40004FF40053A4F8C830154BC4F8CC30154BF0
:101E5000C4F8D0300022C4F8D420C4F8D82000231D
:101E6000C4F8DC3084F8E020042284F80821C4F8A7
:101E70000C31C4F81031C4F81431C4F81831C4F866
:101E80001C314FF07E53C4F82031204610BD00BFF6
:101E900075A58C3C94273538D9EC023ED6A0CC3FB2
:101EA000CDCC4C440000A04110B50446FFF7B4FF70
:101EB00004F59270FFF7B0FF04F51270FFF7ACFF66
:101EC00004F55B70FFF7A8FF04F59262002313602E
:101ED00004F29442136004F593621360204610BD2F
:101EE00070B5044600268661C66180F8286080F8D7
:101EF0005060002545658565C5650566456685664E
:101F0000C0F88460C0F8886080F8946080F8BC6095
:101F1000C0F8C050C0F8C450C0F8C850C0F8CC5089
:101F2000C0F8D050C0F8D450D830FFF761FF0D4B47
:101F3000C4F828310C4BC4F82C31C4F83051C4F823
:101F40003451C4F83851C4F83C5184F84061C4F8A5
:101F50004451C4F84851C4F84C51C4F8505120467B
:101F600070BD00BF9A9919BFC3F5A83E0022026058
:101F70004FF4807181800321C1808260027302610D
:101F800042610276427601218176C27602774277FB
:101F90008277C27780F82020962280F8212070472F
:101FA00010B50446FFF70EFF04F13800FFF720FFDD
:101FB00004F18800FFF778FF04F22450FFF790FF48
:101FC00004F5CF60FFF7D2FF002384F89C3601238D
:101FD00084F89D36C4F8A036204610BD08B50248E6
:101FE000FFF7DEFF08BD00BFEC06002008B5FFF7D5
:101FF000F5FF08BD08B54FF0E0231B6901F00EFCAA
:10200000012800D108BD00F0CDF9FBE7EFF305830F
:102010002BB9064B186828B901221A6070476FF077
:10202000050070474FF0FF30704700BFD01600200A
:10203000EFF3058373B90A4B1B68012B0DD110B563
:102040000024084BDC77064B02221A6001F032F9BB
:10205000204610BD6FF0050070474FF0FF3070470D
:10206000D016002000ED00E0F0B587B00024059404
:10207000EFF305840CBB00B3002A35D015689369D3
:102080002BB11E46013B372B02D9002016E0182643
:10209000536813F0010F40D154698CB14FEA940C8E
:1020A000936833B1D768B7F5D07F02D3176907B10A
:1020B00084B943B14FF0FF330BB3059807B0F0BDBF
:1020C0004FF0800CECE7D368A3B91369ABB14FF0C4
:1020D000FF33F1E70293019700960B4662462946CB
:1020E00001F078F80590E8E71546002318264FF030
:1020F000800CE1E74FF0FF33DEE70023DCE705ABC0
:10210000019300960B461FFA8CF2294601F09FF8C6
:102110000128D2D000230593CFE70020CEE708B5F1
:10212000EFF3058333B908B9002008BD01F02EFA9A
:102130000020FAE76FF00500F7E70000034B0360AB
:10214000034B0B6080231360704700BF30150020E5
:1021500030130020034B0360034B0B604FF480737C
:102160001360704790110020900D002000F10803CB
:1021700043604FF0FF328260C3600361002303605D
:10218000704700230361704743684B609A688A6018
:10219000516099600861036801330360704730B48F
:1021A0000D68B5F1FF3F11D000F108031C465B68D4
:1021B0001A68AA42FAD963684B6099608C606160C2
:1021C000086103680133036030BC70470469F2E7BB
:1021D0000369416882688A60416851605A68824236
:1021E00006D0002202611A68013A1A601868704726
:1021F00082685A60F5E7000082B0002301930D4B1E
:102200001B68B3F1FF3F08D04FF0500383F31188F0
:10221000BFF36F8FBFF34F8FFEE74FF0500383F391
:102220001188BFF36F8FBFF34F8F019B002BFCD042
:1022300002B070470C00002008480068006880F376
:1022400008884FF0000080F3148862B661B6BFF3CF
:102250004F8FBFF36F8F00DF00BF000008ED00E07D
:10226000DFF80C00016841F4700101607047000064
:1022700088ED00E04FF0807340F8043C21F001014C
:1022800040F8081C054B40F80C3C40F8202C6FF03F
:10229000020340F8243C4438704700BFF92100088D
:1022A000074B19680868B0E8F04F80F30988BFF35E
:1022B0006F8F4FF0000080F311887047AFF30080FC
:1022C000385800204FF0500383F31188BFF36F8F0D
:1022D000BFF34F8F0B4A136801331360012B00D0FB
:1022E00070474FF0E023D3F8043D13F0FF0FF7D011
:1022F0004FF0500383F31188BFF36F8FBFF34F8FFD
:10230000FEE700BF0C000020094B1B6843B94FF0EB
:10231000500383F31188BFF36F8FBFF34F8FFEE736
:10232000013B034A13600BB983F31188704700BF68
:102330000C00002000000000000000000000000071
:10234000EFF30980BFF36F8F154B1A681EF0100F63
:1023500008BF20ED108A20E9F04F10602DE9090038
:102360004FF0500080F31188BFF34F8FBFF36F8F92
:1023700001F032F94FF0000080F3118809BC1968B0
:102380000868B0E8F04F1EF0100F08BFB0EC108ADC
:1023900080F30988BFF36F8F704700BFAFF30080F1
:1023A0003858002008B54FF0500383F31188BFF36D
:1023B0006F8FBFF34F8F00F0E1FF28B14FF0E023A4
:1023C0004FF08052C3F8042D002383F3118808BD19
:1023D0004FF0E022002313619361054B1B68054910
:1023E000A1FB03139B09013B536107231361704752
:1023F00000000020D34D62104FF0E023D3F8002DF1
:102400003D4B9A421CD04FF0E023D3F8002D3B4BBC
:102410009A421ED030B583B0394B1A78D2B20192AD
:10242000FF221A701B78DBB28DF803309DF8033061
:1024300003F05003334A1370334B07221A601BE03A
:102440004FF0500383F31188BFF36F8FBFF34F8FAB
:10245000FEE74FF0500383F31188BFF36F8FBFF394
:102460004F8FFEE7284A1368013B13609DF8033045
:102470005B00DBB28DF803309DF8033013F0800F62
:10248000F0D1214B1B68032B08D04FF0500383F38E
:102490001188BFF36F8FBFF34F8FFEE71B021A4AFD
:1024A000136003F4E0631360019BDBB2144A137002
:1024B0004FF0E024D4F8203D43F47003C4F8203DED
:1024C000D4F8203D43F07043C4F8203DFFF780FF6F
:1024D00000250E4B1D60FFF7C3FED4F8343F43F0D8
:1024E0004043C4F8343FFFF7A7FE01F075F8FFF74B
:1024F00083FE284603B030BD71C20F4170C20F4148
:1025000000E400E0D8160020D41600200C000020C3
:10251000EFF305830F2B0ED9114A9A5C114B1B78F0
:102520009A4208D24FF0500383F31188BFF36F8FA4
:10253000BFF34F8FFEE74FF0E023D3F80C3D03F4D9
:10254000E063094A1268934208D94FF0500383F3BD
:102550001188BFF36F8FBFF34F8FFEE7704700BF47
:10256000F0E300E0D8160020D4160020124A12F042
:10257000070F1ED0D11D21F00701C1F57053134480
:102580000A460E480260002141601344083B23F0D4
:1025900007030B48036059601960991A5160136072
:1025A000084B1960084B1960084B4FF000421A6045
:1025B00070474FF47053E4E7FC160020F416002037
:1025C000F0160020E8160020EC160020DC16002093
:1025D000164B1A461B688342FBD3516802EB010C71
:1025E000844509D0416800EB010C634509D00360C4
:1025F000904219D010607047406801445160104605
:10260000F0E710B40A4C2468A3420BD05B6819446D
:10261000416013681B680360904200D010605DF851
:10262000044B70470460F7E7704700BFF4160020C2
:10263000F016002038B5044600F092FE384B1B68B7
:10264000B3B1384B1B681C4250D1002C50D004F160
:10265000080214F0070F02D022F007020832002A05
:1026600055D0314B1B68934253D330490C6804E07A
:10267000FFF77CFFE5E721461C466368934202D2E0
:102680002368002BF7D1264B1B68A34243D00D686B
:10269000083523680B6063689B1A102B10D9A018AB
:1026A00010F0070F08D04FF0500383F31188BFF3E9
:1026B0006F8FBFF34F8FFEE743606260FFF788FFC5
:1026C000626819490B689B1A0B60194909688B42AB
:1026D00001D217490B60134B1B681343636000233F
:1026E0002360144A13680133136002E0002500E000
:1026F000002500F0CFFE15F0070F0ED04FF050036D
:1027000083F31188BFF36F8FBFF34F8FFEE7002570
:10271000EFE70025EDE70025EBE7284638BD00BFD1
:10272000F0160020DC160020EC160020F416002025
:10273000E8160020E4160020002834D038B50446FE
:10274000A0F1080550F8043C174A1268134208D15A
:102750004FF0500383F31188BFF36F8FBFF34F8F98
:10276000FEE750F8081C41B14FF0500383F3118885
:10277000BFF36F8FBFF34F8FFEE723EA020340F8EA
:10278000043C00F0EDFD54F8041C084A13680B44A7
:1027900013602846FFF71CFF054A136801331360D6
:1027A00000F078FE38BD7047DC160020EC160020E3
:1027B000E016002010B50446FFF784FDA26BE36B22
:1027C0009A4204D00024FFF79FFD204610BD01244B
:1027D000F9E710B50446FFF775FDA36B23B9012493
:1027E000FFF792FD204610BD0024F9E770B50446BE
:1027F0001546866B026C5AB903681BB1002001367E
:10280000A66370BD806801F019F80023A360F6E7A5
:102810006DB94068FDF7E6FC6368226C13446360A1
:10282000A268934219D3236863602846E7E7C0682B
:10283000FDF7D8FCE368226C51429B1AE3602268E2
:10284000934202D2A3680B44E360022D01D0002022
:10285000D5E726B1013E0020D1E72846CFE700208A
:10286000CDE70346026C6AB110B50846D968114439
:10287000D9609C68A14201D31968D960D968FDF775
:10288000B1FC10BD704738B50546FFF71BFD95F844
:10289000454064B201E0013C64B2002C0ADD6B6A81
:1028A00043B105F1240000F01DFF0028F3D000F033
:1028B000AFFFF0E7FF2385F84530FFF725FDFFF771
:1028C00001FD95F8444064B201E0013C64B2002C83
:1028D0000ADD2B6943B105F1100000F003FF002869
:1028E000F3D000F095FFF0E7FF2385F84430FFF7C1
:1028F0000BFD38BD38B5E0B10D460446FFF7E2FCEC
:102900002368E26B216C01FB0230A0600020A06311
:102910006360013A02FB0133E360FF2384F8443033
:1029200084F84530FDB9236963B9FFF7EDFC012058
:1029300038BD4FF0500383F31188BFF36F8FBFF39F
:102940004F8FFEE704F1100000F0CCFE0028ECD021
:102950004FF0E0234FF08052C3F8042DBFF34F8FA8
:10296000BFF36F8FE1E704F11000FFF7FFFB04F105
:102970002400FFF7FBFBD8E738B51D46049C0B4647
:1029800049B92460E063236401212046FFF7B2FFC8
:1029900084F84C5038BD2260F4E740B94FF0500342
:1029A00083F31188BFF36F8FBFF34F8FFEE710B52E
:1029B00084B01C46844653B192B189B94FF050039C
:1029C00083F31188BFF36F8FBFF34F8FFEE74FF094
:1029D000500383F31188BFF36F8FBFF34F8FFEE770
:1029E0006AB150230393039B502B13D04FF0500335
:1029F00083F31188BFF36F8FBFF34F8FFEE700297A
:102A0000EFD04FF0500383F31188BFF36F8FBFF304
:102A10004F8FFEE7039B012384F8463000949DF816
:102A200018306046FFF7A8FF204604B010BDF0B58F
:102A300085B0019288B10F461D460446B1B1022D02
:102A400020D1E36B012B1DD04FF0500383F311888D
:102A5000BFF36F8FBFF34F8FFEE74FF0500383F349
:102A60001188BFF36F8FBFF34F8FFEE7036C002B0E
:102A7000E5D04FF0500383F31188BFF36F8FBFF39E
:102A80004F8FFEE700F0CAFE064658B9019B002BA7
:102A900048D04FF0500383F31188BFF36F8FBFF31B
:102AA0004F8FFEE700263DE02A4639462046FFF7D5
:102AB0009DFE636A7BB948B14FF0E0234FF080522E
:102AC000C3F8042DBFF34F8FBFF36F8FFFF71CFCCC
:102AD000012005B0F0BD04F1240000F003FE002841
:102AE000F4D04FF0E0234FF08052C3F8042DBFF331
:102AF0004F8FBFF36F8FE9E7FFF706FC0020E8E791
:102B000002A800F035FE012619E0002384F84430C5
:102B100021E0002384F8453023E02046FFF7B3FE90
:102B200000F0B8FCFFF7CEFBA26BE36B9A42BBD37D
:102B3000022DB9D0019B002BDED0002EE0D0FFF794
:102B4000E3FB00F00DFCFFF7BDFB94F8442052B20C
:102B5000B2F1FF3FD9D094F8452052B2B2F1FF3F15
:102B6000D7D0FFF7D1FB01A902A800F00DFED8B91C
:102B70002046FFF71FFE0028CFD0019904F1100076
:102B800000F07CFD2046FFF77EFE00F083FC00286D
:102B9000C8D14FF0E0234FF08052C3F8042DBFF3AB
:102BA0004F8FBFF36F8FBDE72046FFF76CFE00F03D
:102BB00071FC00208DE72DE9F84390B10F461646D1
:102BC0001C460546B1B1022C20D1EB6B012B1DD068
:102BD0004FF0500383F31188BFF36F8FBFF34F8F14
:102BE000FEE74FF0500383F31188BFF36F8FBFF3FD
:102BF0004F8FFEE7036C002BE5D04FF0500383F3BB
:102C00001188BFF36F8FBFF34F8FFEE7FFF780FC94
:102C1000EFF311884FF0500383F31188BFF36F8FE8
:102C2000BFF34F8FAA6BEB6B9A4206D3022C04D0F2
:102C3000002088F31188BDE8F88395F845904FFA95
:102C400089F9AB6B224639462846FFF7CFFDB9F12B
:102C5000FF3F06D009F101035BB285F84530012042
:102C6000E7E76B6A0BB90120E3E705F1240000F008
:102C700039FD18B126B101203060DAE70120D8E72C
:102C80000120D6E7F0B585B0019290B10F46044619
:102C9000C1B100F0C3FD064600BB019B002B5ED016
:102CA0004FF0500383F31188BFF36F8FBFF34F8F43
:102CB000FEE74FF0500383F31188BFF36F8FBFF32C
:102CC0004F8FFEE7036C002BE3D04FF0500383F3EC
:102CD0001188BFF36F8FBFF34F8FFEE700263EE0F2
:102CE00039462046FFF7BDFD013DA563236923B9A1
:102CF000FFF70AFB012005B0F0BD04F1100000F061
:102D0000F1FC0028F4D04FF0E0234FF08052C3F8DC
:102D1000042DBFF34F8FBFF36F8FE9E7FFF7F4FA8E
:102D20000020E8E702A800F023FD012621E00023AF
:102D300084F8443029E0002384F845302BE0204615
:102D4000FFF7A1FD00F0A6FB09E02046FFF79BFD81
:102D500000F0A0FB2046FFF73CFD00283FD1FFF725
:102D6000B1FAA56B002DBBD1019B002BD6D0002E54
:102D7000D8D0FFF7C9FA00F0F3FAFFF7A3FA94F8F6
:102D800044305BB2B3F1FF3FD1D094F845305BB231
:102D9000B3F1FF3FCFD0FFF7B7FA01A902A800F0C7
:102DA000F3FC0028D1D12046FFF713FD0028C6D040
:102DB000019904F1240000F061FC2046FFF763FD57
:102DC00000F068FB0028CAD14FF0E0234FF080529A
:102DD000C3F8042DBFF34F8FBFF36F8FBFE7002001
:102DE00089E700000023072B0CD8074A52F833204C
:102DF0000AB10133F7E7044A42F8331002EBC30289
:102E000050607047704700BFFC52002070B5044608
:102E10000D461646FFF756FA94F844305BB2B3F10C
:102E2000FF3F0DD094F845305BB2B3F1FF3F0BD0BC
:102E3000FFF76AFAA36B5BB12046FFF724FD70BD74
:102E4000002384F84430EDE7002384F84530EFE7B1
:102E50003246294604F1240000F028FCECE700008B
:102E6000084B1B681B6823B9074B4FF0FF321A60F1
:102E70007047044B1B68DB68DB685A68024B1A60BA
:102E8000704700BFAC530020445300202DE9F047A9
:102E900080460D4617469946089EDDF824A00A9CF8
:102EA0009200A521206B01F0B7F8236B07F1804257
:102EB000013A03EB820727F00707002D61D04FF09E
:102EC000000CBCF10F0F09D815F80C3004EB0C0204
:102ED00082F8343013B10CF1010CF2E7002384F8CE
:102EE0004330372E00D93726E662E6640025256593
:102EF000201DFFF746F904F11800FFF742F924619D
:102F0000C6F13806A6616462C4F8985184F89C51F1
:102F10004FF4A072294604F1580001F07DF81B4BD4
:102F2000E36503F168022266D03363660122002361
:102F3000C4E93C2343F20E33A4F8F8304AF6CD330B
:102F4000A4F8FA3041F23423A4F8FC304EF26D6359
:102F5000A4F8FE304DF6EC63A4F800310523A4F884
:102F600002310B23A4F804314A4641463846FFF7A4
:102F700081F92060BAF1000F01D0CAF80040BDE825
:102F8000F087002384F83430ABE700BF6859002095
:102F900038B5002407E004EB840293000E4818447F
:102FA000FFF7E4F80134372CF5D90C4D2846FFF72C
:102FB000DDF80B4C2046FFF7D9F80A48FFF7D6F8A2
:102FC0000948FFF7D3F80948FFF7D0F8084B1D6010
:102FD000084B1C6038BD00BFD8530020C4530020EC
:102FE000B0530020945300208053002068530020E9
:102FF000AC530020A853002010B50446FFF762F937
:10300000224A136801331360214B1B685BB1214BCB
:103010001B686BB91E4B1B68DA6AE36A9A4207D8D1
:103020001B4B1C6004E01A4B1C601368012B29D059
:10303000194A1368013313606364E06A174B1B6815
:10304000984201D9154B186000EB8000211D144BEC
:1030500003EB8000FFF798F8FFF756F90D4B1B685C
:103060007BB10B4B1B68DA6AE36A9A4209D24FF0D4
:10307000E0234FF08052C3F8042DBFF34F8FBFF30E
:103080006F8F10BDFFF784FFD2E700BF64530020AD
:103090003858002058530020485300205C5300202B
:1030A000D853002010B50446583001F003F894F8C6
:1030B0009D3163B1012B11D0022B0ED04FF0500384
:1030C00083F31188BFF36F8FBFF34F8FFEE7206B41
:1030D000FFF732FB2046FFF72FFB10BD2046FFF71E
:1030E0002BFBFAE70F4B1B68D3B110B5FFF7EAF8DB
:1030F0000D4BDB68DC68201DFFF76AF80B4A13688C
:10310000013B1360074A1368013B1360FFF7FCF8AB
:103110002046FFF7C7FF034B1B68002BE6D110BD0D
:10312000704700BF7C530020805300206453002070
:1031300008B5FFF7D7FF074B1B68012BF9D94FF0F4
:10314000E0234FF08052C3F8042DBFF34F8FBFF33D
:103150006F8FEEE7D853002070B504460D46174B2D
:103160001E68174B18680430FFF732F8B4F1FF3FC0
:103170000DD03444124B1B685C60A64210D9114B31
:1031800018680F4B19680431FFF709F870BD002D5E
:10319000EFD00B4B196804310B48FEF7F5FFF5E74C
:1031A0000A4B1868064B19680431FEF7F8FF084B04
:1031B0001B68A342EAD9064B1C60E7E76053002076
:1031C00038580020A853002068530020AC5300203A
:1031D0004453002030B587B00B9C8CB10C9DC5B119
:1031E0004FF4D0750495049DB5F5D07F1AD04FF0FB
:1031F000500383F31188BFF36F8FBFF34F8FFEE748
:103200004FF0500383F31188BFF36F8FBFF34F8FDD
:10321000FEE74FF0500383F31188BFF36F8FBFF3C6
:103220004F8FFEE7049D0C9D2C63022485F89D4181
:1032300000240394029505AC01940A9C0094FFF7C6
:1032400025FE0C98FFF7D8FE059807B030BD2DE994
:10325000F04385B00746884614461E469000FFF7A7
:10326000E9F910B381464FF4D070FFF7E3F9054652
:10327000A8B1C0F83090002380F89D3103930290EC
:103280000D9B01930C9B00933346224641463846E2
:10329000FFF7FCFD2846FFF7AFFE012007E0484698
:1032A000FFF74AFA4FF0FF3001E04FF0FF3005B072
:1032B000BDE8F08310B588B000240594069407AAF1
:1032C00006A905A8FEF73AFF059B0293069B01930A
:1032D00000942346079A1A491A48FFF77BFF1A4BB6
:1032E0001860E8B100F05EFB01281AD14FF05003DE
:1032F00083F31188BFF36F8FBFF34F8F134B1B689E
:103300005833134A1360134B4FF0FF321A60124BBD
:1033100001221A60114B00221A60FFF76DF803E0DA
:103320000020B0F1FF3F01D008B010BD4FF05003B6
:1033300083F31188BFF36F8FBFF34F8FFEE700BF9A
:1033400078450008313100084053002038580020EB
:1033500010000020445300205853002060530020E8
:10336000024A136801331360704700BF3C530020CA
:10337000014B1868704700BF60530020F8B53A4B06
:103380001B68002B69D1394B1D6801351D60C5B91B
:10339000374B1B681B6843B14FF0500383F3118810
:1033A000BFF36F8FBFF34F8FFEE7314A1168314B88
:1033B000186810601960304A136801331360FFF712
:1033C0004FFD2E4B1B68AB423DD900272C4B1B6891
:1033D000DB6A03EB83039A002A4B9B58012B00D92D
:1033E0000127294B1B68002B3CD001273AE001271D
:1033F0001F4B1B681B6843B31D4B1B68DB68DC68F5
:1034000063689D4226D3261D3046FEF7E1FEA36A7F
:103410001BB104F11800FEF7DBFEE36A1B4A1268D9
:10342000934201D9194A136003EB83039A00314692
:1034300014481044FEF7A8FEE26A114B1B68DB6AD1
:103440009A42D4D2D4E70027D2E70C4B4FF0FF3298
:103450001A60BBE7094A1360B8E70D4A13680133E5
:10346000136000273846F8BD3C530020605300200D
:10347000AC530020A85300204C530020445300209C
:1034800038580020D8530020505300205C530020AF
:103490005453002038B5354B1B6843B94FF05003E7
:1034A00083F31188BFF36F8FBFF34F8FFEE7FEF7F3
:1034B00009FF2E4B1A68013A1A601B68002B4FD186
:1034C0002B4B1B680BB900244BE00024294B1B68D5
:1034D0001BB3284BDB68DC6804F11800FEF778FEAC
:1034E000251D2846FEF774FEE06A234B1B689842B0
:1034F00001D9214B186000EB800029461F4B03EBDC
:103500008000FEF741FEE26A1D4B1B68DB6A9A42AF
:10351000DCD31C4B01221A60D8E70CB1FFF7A0FCEA
:10352000194B1C6884B9174B1C68D4B14FF0E023C9
:103530004FF08052C3F8042DBFF34F8FBFF36F8F4E
:1035400001240EE0013C07D0FFF718FF0028F9D056
:103550000C4B01221A60F5E70B4B00221A60E2E7E0
:103560000024FEF7D1FE204638BD00BF3C530020AA
:1035700064530020945300205C530020D853002053
:1035800038580020505300205453002010B5A8B1E3
:103590000446104B1B6843B14FF0500383F311886E
:1035A000BFF36F8FBFF34F8FFEE7FFF7D9FE002108
:1035B0002046FFF7D1FDFFF76DFF48B94FF0E0233C
:1035C0004FF08052C3F8042DBFF34F8FBFF36F8FBE
:1035D00010BD00BF3C530020224B1B681BB1224B87
:1035E00001221A607047204B00221A601F4B1B6893
:1035F00003EB83018A001E498A585AB90BB1013B7B
:10360000F6E74FF0500383F31188BFF36F8FBFF3DA
:103610004F8FFEE7084603EB83018A00024451689E
:103620004968516003EB830C4FEA8C020832024474
:1036300091420FD003EB830291000D4A0A44526875
:10364000D1680C4A116009490B60136858330A4A63
:1036500013607047486862469100054A0A4450600A
:10366000E8E700BF3C530020505300205C5300208B
:10367000D8530020385800201000002058B110B551
:103680000C46094A11681831FEF789FD01212046D0
:10369000FFF762FD10BD4FF0500383F31188BFF3B5
:1036A0006F8FBFF34F8FFEE73858002038B570B1E9
:1036B0000D4614460A4A11681831FEF765FD0CB133
:1036C0004FF0FF3521462846FFF746FD38BD4FF045
:1036D000500383F31188BFF36F8FBFF34F8FFEE763
:1036E0003858002038B5C368DC6824B304F11805E5
:1036F0002846FEF76DFD184B1B682BBB251D284681
:10370000FEF766FDE06A154B1B68984201D9134B22
:10371000186000EB80002946114B03EB8000FEF798
:1037200033FDE26A0F4B1B68DB6A9A4211D9012014
:103730000D4B186038BD4FF0500383F31188BFF371
:103740006F8FBFF34F8FFEE729460848FEF71CFD39
:10375000E7E70020EEE700BF3C5300205C53002069
:10376000D853002038580020505300209453002094
:10377000034B1B680360034B1B684360704700BF2B
:103780004C53002060530020E0B170B50C46054654
:1037900009B3FEF797FD1C4B19686B68C81A2268BD
:1037A000B2F1FF3F28D0DFF864C0DCF800C02E681B
:1037B000664501D08B4224D9824215D8002323606C
:1037C00001241AE04FF0500383F31188BFF36F8F89
:1037D000BFF34F8FFEE74FF0500383F31188BFF321
:1037E0006F8FBFF34F8FFEE75B1A134423602846A9
:1037F000FFF7BEFF002400E00024FEF785FD204611
:1038000070BD0124F9E700BF605300204C53002035
:10381000014B01221A60704750530020054B1B6872
:1038200033B1054B1B680BB1002070470220704775
:1038300001207047585300203C53002000283BD003
:1038400038B504461E4B1B68834208D04FF0500326
:1038500083F31188BFF36F8FBFF34F8FFEE7036DC4
:1038600043B94FF0500383F31188BFF36F8FBFF359
:103870004F8FFEE7013B0365C16AC26C91421DD0C8
:103880000BB1002038BD051D2846FEF7A1FCE06CF9
:10389000E062C0F13803A3610A4B1B68984201D96A
:1038A000084B186000EB80002946074B03EB8000B3
:1038B000FEF76AFC0120E5E7002070470020E1E701
:1038C000385800205C530020D8530020064B1A685B
:1038D00013682BB90123036023B9D36818687047B4
:1038E0000023F8E7002070473C59002008B54160EC
:1038F000006191420CD8D21A83699A4201D3012007
:1039000008BD011D094B1868FEF749FC0020F7E7C8
:103910009A4201D2994206D2011D054B1868FEF762
:103920003EFC0020ECE70120EAE700BF3859002008
:103930003C59002030B583B0FEF7C4FC114B1B6826
:103940001BB1FEF7E1FC03B030BD0F4D2846FEF77A
:103950000DFC0E4C2046FEF709FC0D4B1D600D4B77
:103960001C60002300930C4B0C4A10210A20FFF727
:1039700014F8044B18600028E3D00949FFF732FA25
:10398000DFE700BF3459002054590020405900207F
:103990003C590020385900203C5800208C58002009
:1039A0008045000810B588B0FFF7C4FF124B1B68B4
:1039B000CBB100240594069407AA06A905A8FEF732
:1039C000C9FB059B0293069B0193022300932346A8
:1039D000079A0A490A48FFF7FDFB0A4B186010B125
:1039E000012008B010BD4FF0500383F31188BFF3DE
:1039F0006F8FBFF34F8FFEE73459002088450008D2
:103A0000093D000830590020B8B19C4603461848CB
:103A1000006858B300B585B0009101920293052962
:103A20001CDCFFF7FBFE022810D000231A46694673
:103A30000F480068FEF7FBFF15E04FF0500383F3DB
:103A40001188BFF36F8FBFF34F8FFEE70023069AF5
:103A5000694607480068FEF7EAFF04E00023624673
:103A60006946FFF7A8F805B05DF804FB0020704731
:103A70003459002070B582B01B4B1B681A6862B3C2
:103A8000DB681E68DC68251D2846FEF7A1FB236A5B
:103A90002046984794F8283013F0040FECD0A3691F
:103AA00033449E4207D26360246129460E4B186856
:103AB000FEF775FBE0E7002100910B4632462046F9
:103AC000FFF7A2FF0028D7D14FF0500383F31188EE
:103AD000BFF36F8FBFF34F8FFEE7044A10680249B0
:103AE0000860136002B070BD3C59002038590020B6
:103AF00038B50546FFF73CFC0446074B1B6883427C
:103B000005D800232B60044B1C60204638BDFFF70E
:103B1000B1FF01232B60F6E72C59002070B582B06D
:103B200006460D4617490968C968CC68201DFEF78E
:103B30004FFB94F828C01CF0040F08D12CF0010CA6
:103B400084F828C0236A2046984702B070BDA16956
:103B500033462A4631442046FFF7C8FE0028F1D0FC
:103B6000002100910B4632462046FFF74DFF00280A
:103B7000E8D14FF0500383F31188BFF36F8FBFF389
:103B80004F8FFEE73C59002070B582B006460C46C8
:103B9000FFF7E6FB01A8FFF7ABFF019B33BB054630
:103BA000E4B9B04213D22246711B124B1868FFF7DA
:103BB0002DF9FFF76FFCD8B94FF0E0234FF080529A
:103BC000C3F8042DBFF34F8FBFF36F8F10E0FFF7E3
:103BD00061FC29463046FFF7A1FF09E0064A12685A
:103BE00012680AB90124DEE71C46DCE7FFF752FC45
:103BF00002B070BD345900203859002010B588B08B
:103C000002E0049B002B0FDA002204A93D4B186848
:103C1000FFF738F8002872D0049B002BF1DA0799DF
:103C20000698059B9847ECE7069C636913B1201D35
:103C3000FEF7CEFA03A8FFF75BFF0246049B092BB1
:103C4000E2D8DFE803F00505052F364E05052F36CF
:103C500094F8283043F0010384F82830059BA169CB
:103C600019442046FFF742FE0028CDD0236A2046A3
:103C7000984794F8283013F0040FC5D0A2690021AA
:103C800000910B46059802442046FFF7BDFE002830
:103C9000BAD14FF0500383F31188BFF36F8FBFF396
:103CA0004F8FFEE794F8283023F0010384F8283082
:103CB000AAE794F8283043F0010384F828300599E6
:103CC000A16129B1034601442046FFF70FFE9BE79F
:103CD0004FF0500383F31188BFF36F8FBFF34F8F03
:103CE000FEE794F8283013F0020F04D023F001030C
:103CF00084F8283088E72046FEF71EFD84E708B0E8
:103D000010BD00BF3459002000B583B001A8FFF7F3
:103D1000DDFD0199FFF738FFFFF770FFF6E70000C0
:103D20002DE9F047089D0F4604468C46002B48D1EC
:103D30008A42164661D9B2FA82F34BB1C3F120022E
:103D400001FA03FC20FA02F29E4042EA0C0C9C406D
:103D50004FEA164EB7B2BCFBFEF1220C0EFB11CCA3
:103D600042EA0C4201FB07F0904209D9B21801F176
:103D7000FF3C80F0EE80904240F2EB80023932440A
:103D8000121AA4B2B2FBFEF00EFB102244EA024467
:103D900000FB07F7A74209D9341900F1FF3280F080
:103DA000DA80A74240F2D7803444023840EA01402A
:103DB000E41B00211DB1DC400023C5E90043BDE840
:103DC000F0878B4206D90DB1C5E9000100210846F4
:103DD000BDE8F087B3FA83F1002948D1BB4202D392
:103DE000824200F20781841A67EB030201209446A5
:103DF000002DE4D0C5E9004CE1E7002A00F09280F4
:103E0000B2FA82F3002B40F0A8808A1A4FEA164ECD
:103E10001FFA86FC0121200CB2FBFEF70EFB1722D5
:103E200040EA02420CFB07F0904207D9B21807F1B2
:103E3000FF3802D2904200F2E2804746121AA4B242
:103E4000B2FBFEF00EFB102244EA02440CFB00FC25
:103E5000A44507D9341900F1FF3202D2A44500F27B
:103E6000CB801046A4EB0C0440EA0740A2E7C1F166
:103E700020068B4022FA06FC4CEA030C07FA01F4F8
:103E800020FA06F3F7404FEA1C49234300FA01F8F1
:103E90001FFA8CFEB7FBF9F01C0C09FB107744EA03
:103EA000074400FB0EF7A74202FA01F20AD91CEB05
:103EB000040400F1FF3A80F09B80A74240F2988012
:103EC00002386444E41B9FB2B4FBF9F309FB1344CA
:103ED00047EA044403FB0EFEA64509D91CEB040483
:103EE00003F1FF3780F08280A6457FD9023B64440E
:103EF00043EA0040A4EB0E04A0FB02E7BC42734679
:103F0000B94663D360D05DB1B8EB030264EB09043A
:103F100004FA06F622FA01F31E43CC40C5E9006418
:103F200000214CE76208480842EAC1710B0C43EAE1
:103F300000438AB242EA0342B3FBF6F1E407B44617
:103F40003746B6461F23B0FBF6F0D21B41EA0041CC
:103F500061E7614614E7104628E7C3F1200120FA23
:103F600001F29E4027FA01F19F403A434FEA164E74
:103F70001FFA86FCB1FBFEF70EFB1710110C41EA8D
:103F8000004107FB0CF8884504FA03F43AD971188C
:103F900007F1FF3001D288451FD8A1EB0801B1FB22
:103FA000FEF808FB0CF70EFB181192B242EA014230
:103FB000BA422FD2B21808F1FF31C6D2BA42C4D2E7
:103FC000A8F102013244C0E7F0459CD2BEEB0203E7
:103FD00067EB0C070138B94695E7A6EB08084144A2
:103FE000B81EB1FBFEF808FB0CF7DCE73B467FE7A9
:103FF000504667E70846FBE63444023832E7023FA2
:1040000032441BE7A1EB08013846B1FBFEF808FB80
:104010000CF7C8E7414698E7830730B546D08418C7
:10402000844604E003F8011B9D0704D09C46A44588
:104030006346F7D130BD013A0244A2EB0C02032AD9
:1040400029D9CCB204EB04240F2A04EB04442FD961
:10405000A2F1100C2CF00F0C03F11005AC44C3E9D5
:104060000044C3E9024410336345F8D112F00C0F49
:1040700002F00F0E18D02EF0030C9C44AEF1040594
:104080001A4642F8044B6245FBD125F00304043381
:104090000EF003022344002ACCD0C9B21A4403F81C
:1040A000011B9342FBD130BD7246F4E70346C6E7DD
:1040B0009646E0E7194B1B6883422ED0416C70B5E1
:1040C000054681B100268C593CB12146246828461A
:1040D00000F0C4F8002CF8D1696C0436802EF2D1BF
:1040E000284600F0BBF8A96B11B1284600F0B6F8DD
:1040F0002C6C34B121462468284600F0AFF8002C1F
:10410000F8D1E96C11B1284600F0A8F86B6B1BB12F
:104110002846BDE87040184770BD70471000002069
:10412000014B1868704700BF1000002070B50F4B9E
:104130000F4DAB42A3EB050607D0B610002455F88F
:10414000043B01349847A642F9D800F0FFF9094D25
:10415000094B5E1BAB424FEAA60606D0002455F879
:10416000043B01349847A642F9D870BDDC450008ED
:10417000DC450008DC450008E8450008704700BF42
:10418000704700BF024B13B1024800F005B87047FA
:104190000000000089440008002301461A46184622
:1041A00000F094B92DE9F84306460820894600F04E
:1041B0007FF9DFF8A4800546304600F047F9D8F8CB
:1041C00008305F6827F00307A7F11104A4EB090486
:1041D0002C44B4FBF5F4013C05FB04F4A54208DCD7
:1041E0000021304600F03EF9D8F808303B449842B0
:1041F00005D0304600F030F90020BDE8F883614278
:10420000304600F02FF901300FD0114AD8F80830AD
:104210003F1B47F001075F60136830461B1B1360AC
:1042200000F01AF90120BDE8F8830021304600F0C3
:1042300019F9D8F80820831A0F2BDADD43F00103AF
:104240005360044B02491B68C01A0860D1E700BFE5
:10425000B05A00205C0100206801002000295BD0DA
:10426000F8B50C46074600F0F1F854F804CC744D4C
:10427000A4F108022CF00103D118A8684E68884206
:1042800026F003060CF0010E7ED088194E604068BF
:1042900000F00100BEF1000F2FD154F8084C121BA2
:1042A0002344946805F1080C644562D0D2F80CE010
:1042B000C4F80CE0CEF8084000287FD043F001009D
:1042C00050600B60B3F5007F2FD2D90868685C0995
:1042D0000131012309B2A34003436B6055F831005B
:1042E000906005EBC103083BD36045F83120C26004
:1042F0003846BDE8F84000F0AFB870B9334405F176
:10430000080C8868604543F0010471D0C968C16039
:1043100088605460D350D5E770474CF00101B3F585
:10432000007F44F8041CD350CFD3B3F5206F4FEA7D
:10433000532045D2980900F1390109B200F138043F
:10434000C900681869580838884203D157E089685D
:10435000884204D04C6824F003049C42F7D8C86813
:10436000C2E9021082603846CA60BDE8F84000F039
:1043700073B888BB1E44D1E90213CB60996046F044
:10438000010353609651B3E71E44BEF1000F07D1FD
:1043900054F8083CD21A1E44D2E90213CB6099604B
:1043A00046F001035360274BAA601B68B3429FD8B5
:1043B000254B38461968FFF7F5FE99E73344A0E727
:1043C00014280ED9542821D8180B00F16F0109B216
:1043D00000F16E04C900B4E743F0010050600B60C7
:1043E00086E700F15C0109B200F15B04C900A8E7AF
:1043F000C5E90422C2E902CC5460D35078E76E6864
:10440000A4100123A34033436B60A9E7B0F5AA7F52
:1044100007D8D80B00F1780109B200F17704C90080
:104420008FE740F25451884206D8980C00F17D0184
:1044300000F17C04C90084E74FF47E717E2480E79C
:104440006801002060010020D85A00200148FFF7D1
:1044500095BE00BFA45A00200148FFF791BE00BFDF
:10446000A45A002038B5074D0022044608462A60A9
:10447000FCF784FA431C00D038BD2B68002BFBD01E
:10448000236038BDA05A002038B5074D074C2C1BBF
:10449000A41005D0013C55F8043D9847002CF9D1F3
:1044A000BDE8384000F058B8EC450008E845000881
:1044B000082802D14FF48050704708B5FFF730FE4E
:1044C000162303604FF0FF3008BD00BF2DE9F8430D
:1044D0001B4D0646286898460F469146FFF74EFE4C
:1044E000184B1C681CB3286865681F2D22DC4EB968
:1044F0006B1C0235636044F82570FFF741FE002015
:10450000BDE8F88304EB85010123C1F88890D4F855
:104510008821AB401A43022EC4F88821C1F80881D3
:10452000E6D1D4F88C211A43C4F88C21E0E7064C7C
:104530001C60D8E7FFF724FE4FF0FF30E0E700BF34
:1045400058010020AC5A0020DC5A0020F8B500BF0A
:10455000F8BC08BC9E467047F8B500BFF8BC08BC64
:044560009E467047BC
:10456400AB7F7F7F7F7F010064656661756C7454E7
:1045740061736B0049444C4500000000546D725156
:1045840000000000546D7220537663006C450008EF
:104594000000000000000000000000000000000017
:1045A40000020000180000000000000000000000ED
:1045B40000000000010203040000000000000000ED
:1045C4000102030406070809000610160006101667
:0845D40010BCFF7F0100000094
:0C45DC008541000881030008ED1F000865
:0445E800590300086B
:1045EC000024F4000100000010000000AAAAAAAAEE
:1045FC001800002000000000000000006859002096
:10460C00D0590020385A00200000000000000000A3
:10461C00000000000000000000000000000000008E
:10462C00000000000000000000000000000000007E
:10463C00000000000000000000000000000000006E
:10464C00000000000000000000000000000000005E
:10465C00000000000000000000000000000000004E
:10466C00000000000000000000000000000000003E
:10467C00000000000000000000000000000000002E
:10468C00000000000000000000000000000000001E
:10469C0001000000000000000E33CDAB34126DE6BB
:1046AC00ECDE05000B000000000000000000000024
:1046BC0000000000000000000000000000000000EE
:1046CC0000000000000000000000000000000000DE
:1046DC0000000000000000000000000000000000CE
:1046EC0000000000000000000000000000000000BE
:1046FC0000000000000000000000000000000000AE
:10470C00000000000000000000000000000000009D
:10471C00000000000000000000000000000000008D
:10472C00000000000000000000000000000000007D
:10473C000000000000000000A85A0020FFFFFFFF4F
:10474C00000002000000000000000000000000005B
:10475C006801002068010020700100207001002019
:10476C0078010020780100208001002080010020C9
:10477C008801002088010020900100209001002079
:10478C009801002098010020A0010020A001002029
:10479C00A8010020A8010020B0010020B0010020D9
:1047AC00B8010020B8010020C0010020C001002089
:1047BC00C8010020C8010020D0010020D001002039
:1047CC00D8010020D8010020E0010020E0010020E9
:1047DC00E8010020E8010020F0010020F001002099
:1047EC00F8010020F8010020000200200002002047
:1047FC0008020020080200201002002010020020F5
:10480C0018020020180200202002002020020020A4
:10481C002802002028020020300200203002002054
:10482C003802002038020020400200204002002004
:10483C0048020020480200205002002050020020B4
:10484C005802002058020020600200206002002064
:10485C006802002068020020700200207002002014
:10486C0078020020780200208002002080020020C4
:10487C008802002088020020900200209002002074
:10488C009802002098020020A0020020A002002024
:10489C00A8020020A8020020B0020020B0020020D4
:1048AC00B8020020B8020020C0020020C002002084
:1048BC00C8020020C8020020D0020020D002002034
:1048CC00D8020020D8020020E0020020E0020020E4
:1048DC00E8020020E8020020F0020020F002002094
:1048EC00F8020020F8020020000300200003002042
:1048FC0008030020080300201003002010030020F0
:10490C00180300201803002020030020200300209F
:10491C00280300202803002030030020300300204F
:10492C0038030020380300204003002040030020FF
:10493C0048030020480300205003002050030020AF
:10494C00580300205803002060030020600300205F
:10495C00680300206803002070030020700300200F
:10496C0078030020780300208003002080030020BF
:10497C00880300208803002090030020900300206F
:10498C009803002098030020A0030020A00300201F
:10499C00A8030020A8030020B0030020B0030020CF
:1049AC00B8030020B8030020C0030020C00300207F
:1049BC00C8030020C8030020D0030020D00300202F
:1049CC00D8030020D8030020E0030020E0030020DF
:1049DC00E8030020E8030020F0030020F00300208F
:1049EC00F8030020F803002000040020000400203D
:1049FC0008040020080400201004002010040020EB
:104A0C00180400201804002020040020200400209A
:104A1C00280400202804002030040020300400204A
:104A2C0038040020380400204004002040040020FA
:104A3C0048040020480400205004002050040020AA
:104A4C00580400205804002060040020600400205A
:104A5C00680400206804002070040020700400200A
:104A6C0078040020780400208004002080040020BA
:104A7C00880400208804002090040020900400206A
:104A8C009804002098040020A0040020A00400201A
:104A9C00A8040020A8040020B0040020B0040020CA
:104AAC00B8040020B8040020C0040020C00400207A
:104ABC00C8040020C8040020D0040020D00400202A
:104ACC00D8040020D8040020E0040020E0040020DA
:104ADC00E8040020E8040020F0040020F00400208A
:104AEC00F8040020F8040020000500200005002038
:104AFC0008050020080500201005002010050020E6
:104B0C001805002018050020200500202005002095
:104B1C002805002028050020300500203005002045
:104B2C0038050020380500204005002040050020F5
:104B3C0048050020480500205005002050050020A5
:104B4C005805002058050020600500206005002055
:04000005080009D90D
:00000001FF
